{
  "_format": "hh-sol-artifact-1",
  "contractName": "Lock",
  "sourceName": "contracts/Lock.sol",
  "abi": [
    {
      "inputs": [],
      "stateMutability": "nonpayable",
      "type": "constructor"
    },
    {
      "inputs": [
        {
          "internalType": "string",
          "name": "_name",
          "type": "string"
        }
      ],
      "name": "addName",
      "outputs": [],
      "stateMutability": "nonpayable",
      "type": "function"
    },
    {
      "inputs": [
        {
          "internalType": "address",
          "name": "user",
          "type": "address"
        },
        {
          "internalType": "uint256",
          "name": "_amount",
          "type": "uint256"
        },
        {
          "internalType": "string",
          "name": "_message",
          "type": "string"
        }
      ],
      "name": "createRequest",
      "outputs": [],
      "stateMutability": "nonpayable",
      "type": "function"
    },
    {
      "inputs": [
        {
          "internalType": "address",
          "name": "_user",
          "type": "address"
        }
      ],
      "name": "getMyHistory",
      "outputs": [
        {
          "components": [
            {
              "internalType": "string",
              "name": "action",
              "type": "string"
            },
            {
              "internalType": "uint256",
              "name": "amount",
              "type": "uint256"
            },
            {
              "internalType": "string",
              "name": "message",
              "type": "string"
            },
            {
              "internalType": "address",
              "name": "otherPartyAddress",
              "type": "address"
            },
            {
              "internalType": "string",
              "name": "otherPartyName",
              "type": "string"
            }
          ],
          "internalType": "struct Lock.sendReceive[]",
          "name": "",
          "type": "tuple[]"
        }
      ],
      "stateMutability": "view",
      "type": "function"
    },
    {
      "inputs": [
        {
          "internalType": "address",
          "name": "_user",
          "type": "address"
        }
      ],
      "name": "getMyName",
      "outputs": [
        {
          "components": [
            {
              "internalType": "string",
              "name": "name",
              "type": "string"
            },
            {
              "internalType": "bool",
              "name": "hasName",
              "type": "bool"
            }
          ],
          "internalType": "struct Lock.userName",
          "name": "",
          "type": "tuple"
        }
      ],
      "stateMutability": "view",
      "type": "function"
    },
    {
      "inputs": [
        {
          "internalType": "address",
          "name": "_user",
          "type": "address"
        }
      ],
      "name": "getMyRequest",
      "outputs": [
        {
          "internalType": "address[]",
          "name": "",
          "type": "address[]"
        },
        {
          "internalType": "uint256[]",
          "name": "",
          "type": "uint256[]"
        },
        {
          "internalType": "string[]",
          "name": "",
          "type": "string[]"
        },
        {
          "internalType": "string[]",
          "name": "",
          "type": "string[]"
        }
      ],
      "stateMutability": "view",
      "type": "function"
    },
    {
      "inputs": [],
      "name": "owner",
      "outputs": [
        {
          "internalType": "address",
          "name": "",
          "type": "address"
        }
      ],
      "stateMutability": "view",
      "type": "function"
    },
    {
      "inputs": [
        {
          "internalType": "uint256",
          "name": "_request",
          "type": "uint256"
        }
      ],
      "name": "payRequest",
      "outputs": [],
      "stateMutability": "payable",
      "type": "function"
    }
  ],
  "bytecode": "0x608060405234801561001057600080fd5b50336000806101000a81548173ffffffffffffffffffffffffffffffffffffffff021916908373ffffffffffffffffffffffffffffffffffffffff160217905550612614806100606000396000f3fe6080604052600436106100705760003560e01c8063370068aa1161004e578063370068aa1461011b57806363d4dd3b146101585780638da5cb5b14610174578063ba9a7a9e1461019f57610070565b80630897ef321461007557806311456b47146100b5578063169afbaa146100de575b600080fd5b34801561008157600080fd5b5061009c6004803603810190610097919061185e565b6101c8565b6040516100ac9493929190611b63565b60405180910390f35b3480156100c157600080fd5b506100dc60048036038101906100d79190611cf9565b6106d6565b005b3480156100ea57600080fd5b506101056004803603810190610100919061185e565b61074c565b6040516101129190611d9a565b60405180910390f35b34801561012757600080fd5b50610142600480360381019061013d919061185e565b610852565b60405161014f9190611f02565b60405180910390f35b610172600480360381019061016d9190611f50565b610b06565b005b34801561018057600080fd5b50610189610eea565b6040516101969190611f8c565b60405180910390f35b3480156101ab57600080fd5b506101c660048036038101906101c19190611fa7565b610f0e565b005b6060806060806000600260008773ffffffffffffffffffffffffffffffffffffffff1673ffffffffffffffffffffffffffffffffffffffff1681526020019081526020016000208054905067ffffffffffffffff81111561022c5761022b611bce565b5b60405190808252806020026020018201604052801561025a5781602001602082028036833780820191505090505b5090506000600260008873ffffffffffffffffffffffffffffffffffffffff1673ffffffffffffffffffffffffffffffffffffffff1681526020019081526020016000208054905067ffffffffffffffff8111156102bb576102ba611bce565b5b6040519080825280602002602001820160405280156102e95781602001602082028036833780820191505090505b5090506000600260008973ffffffffffffffffffffffffffffffffffffffff1673ffffffffffffffffffffffffffffffffffffffff1681526020019081526020016000208054905067ffffffffffffffff81111561034a57610349611bce565b5b60405190808252806020026020018201604052801561037d57816020015b60608152602001906001900390816103685790505b5090506000600260008a73ffffffffffffffffffffffffffffffffffffffff1673ffffffffffffffffffffffffffffffffffffffff1681526020019081526020016000208054905067ffffffffffffffff8111156103de576103dd611bce565b5b60405190808252806020026020018201604052801561041157816020015b60608152602001906001900390816103fc5790505b50905060005b600260008b73ffffffffffffffffffffffffffffffffffffffff1673ffffffffffffffffffffffffffffffffffffffff168152602001908152602001600020805490508110156106be576000600260008c73ffffffffffffffffffffffffffffffffffffffff1673ffffffffffffffffffffffffffffffffffffffff16815260200190815260200160002082815481106104b4576104b3612016565b5b906000526020600020906004020190508060000160009054906101000a900473ffffffffffffffffffffffffffffffffffffffff168683815181106104fc576104fb612016565b5b602002602001019073ffffffffffffffffffffffffffffffffffffffff16908173ffffffffffffffffffffffffffffffffffffffff1681525050806001015485838151811061054e5761054d612016565b5b60200260200101818152505080600201805461056990612074565b80601f016020809104026020016040519081016040528092919081815260200182805461059590612074565b80156105e25780601f106105b7576101008083540402835291602001916105e2565b820191906000526020600020905b8154815290600101906020018083116105c557829003601f168201915b50505050508483815181106105fa576105f9612016565b5b602002602001018190525080600301805461061490612074565b80601f016020809104026020016040519081016040528092919081815260200182805461064090612074565b801561068d5780601f106106625761010080835404028352916020019161068d565b820191906000526020600020905b81548152906001019060200180831161067057829003601f168201915b50505050508383815181106106a5576106a4612016565b5b6020026020010181905250508080600101915050610417565b50838383839750975097509750505050509193509193565b6000600160003373ffffffffffffffffffffffffffffffffffffffff1673ffffffffffffffffffffffffffffffffffffffff16815260200190815260200160002090508181600001908161072a9190612251565b5060018160010160006101000a81548160ff0219169083151502179055505050565b6107546116f0565b600160008373ffffffffffffffffffffffffffffffffffffffff1673ffffffffffffffffffffffffffffffffffffffff1681526020019081526020016000206040518060400160405290816000820180546107ae90612074565b80601f01602080910402602001604051908101604052809291908181526020018280546107da90612074565b80156108275780601f106107fc57610100808354040283529160200191610827565b820191906000526020600020905b81548152906001019060200180831161080a57829003601f168201915b505050505081526020016001820160009054906101000a900460ff1615151515815250509050919050565b6060600360008373ffffffffffffffffffffffffffffffffffffffff1673ffffffffffffffffffffffffffffffffffffffff168152602001908152602001600020805480602002602001604051908101604052809291908181526020016000905b82821015610afb57838290600052602060002090600502016040518060a00160405290816000820180546108e690612074565b80601f016020809104026020016040519081016040528092919081815260200182805461091290612074565b801561095f5780601f106109345761010080835404028352916020019161095f565b820191906000526020600020905b81548152906001019060200180831161094257829003601f168201915b505050505081526020016001820154815260200160028201805461098290612074565b80601f01602080910402602001604051908101604052809291908181526020018280546109ae90612074565b80156109fb5780601f106109d0576101008083540402835291602001916109fb565b820191906000526020600020905b8154815290600101906020018083116109de57829003601f168201915b505050505081526020016003820160009054906101000a900473ffffffffffffffffffffffffffffffffffffffff1673ffffffffffffffffffffffffffffffffffffffff1673ffffffffffffffffffffffffffffffffffffffff168152602001600482018054610a6a90612074565b80601f0160208091040260200160405190810160405280929190818152602001828054610a9690612074565b8015610ae35780601f10610ab857610100808354040283529160200191610ae3565b820191906000526020600020905b815481529060010190602001808311610ac657829003601f168201915b505050505081525050815260200190600101906108b3565b505050509050919050565b600260003373ffffffffffffffffffffffffffffffffffffffff1673ffffffffffffffffffffffffffffffffffffffff168152602001908152602001600020805490508110610b8a576040517f08c379a0000000000000000000000000000000000000000000000000000000008152600401610b8190612380565b60405180910390fd5b6000600260003373ffffffffffffffffffffffffffffffffffffffff1673ffffffffffffffffffffffffffffffffffffffff16815260200190815260200160002090506000818381548110610be257610be1612016565b5b906000526020600020906004020190506000670de0b6b3a76400008260010154610c0c91906123cf565b9050803414610c50576040517f08c379a0000000000000000000000000000000000000000000000000000000008152600401610c479061245d565b60405180910390fd5b8160000160009054906101000a900473ffffffffffffffffffffffffffffffffffffffff1673ffffffffffffffffffffffffffffffffffffffff166108fc349081150290604051600060405180830381858888f19350505050158015610cba573d6000803e3d6000fd5b50610d7b338360000160009054906101000a900473ffffffffffffffffffffffffffffffffffffffff168460010154856002018054610cf890612074565b80601f0160208091040260200160405190810160405280929190818152602001828054610d2490612074565b8015610d715780601f10610d4657610100808354040283529160200191610d71565b820191906000526020600020905b815481529060010190602001808311610d5457829003601f168201915b5050505050611178565b8260018480549050610d8d919061247d565b81548110610d9e57610d9d612016565b5b9060005260206000209060040201838581548110610dbf57610dbe612016565b5b90600052602060002090600402016000820160009054906101000a900473ffffffffffffffffffffffffffffffffffffffff168160000160006101000a81548173ffffffffffffffffffffffffffffffffffffffff021916908373ffffffffffffffffffffffffffffffffffffffff1602179055506001820154816001015560028201816002019081610e5291906124c7565b5060038201816003019081610e6791906124c7565b5090505082805480610e7c57610e7b6125af565b5b6001900381819060005260206000209060040201600080820160006101000a81549073ffffffffffffffffffffffffffffffffffffffff02191690556001820160009055600282016000610ed0919061170c565b600382016000610ee0919061170c565b5050905550505050565b60008054906101000a900473ffffffffffffffffffffffffffffffffffffffff1681565b610f1661174c565b33816000019073ffffffffffffffffffffffffffffffffffffffff16908173ffffffffffffffffffffffffffffffffffffffff168152505082816020018181525050818160400181905250600160003373ffffffffffffffffffffffffffffffffffffffff1673ffffffffffffffffffffffffffffffffffffffff16815260200190815260200160002060010160009054906101000a900460ff161561108a57600160003373ffffffffffffffffffffffffffffffffffffffff1673ffffffffffffffffffffffffffffffffffffffff168152602001908152602001600020600001805461100390612074565b80601f016020809104026020016040519081016040528092919081815260200182805461102f90612074565b801561107c5780601f106110515761010080835404028352916020019161107c565b820191906000526020600020905b81548152906001019060200180831161105f57829003601f168201915b505050505081606001819052505b600260008573ffffffffffffffffffffffffffffffffffffffff1673ffffffffffffffffffffffffffffffffffffffff16815260200190815260200160002081908060018154018082558091505060019003906000526020600020906004020160009091909190915060008201518160000160006101000a81548173ffffffffffffffffffffffffffffffffffffffff021916908373ffffffffffffffffffffffffffffffffffffffff1602179055506020820151816001015560408201518160020190816111599190612251565b50606082015181600301908161116f9190612251565b50505050505050565b61118061178a565b6040518060400160405280600181526020017f2d0000000000000000000000000000000000000000000000000000000000000081525081600001819052508281602001818152505081816040018190525083816060019073ffffffffffffffffffffffffffffffffffffffff16908173ffffffffffffffffffffffffffffffffffffffff1681525050600160008573ffffffffffffffffffffffffffffffffffffffff1673ffffffffffffffffffffffffffffffffffffffff16815260200190815260200160002060010160009054906101000a900460ff161561133257600160008573ffffffffffffffffffffffffffffffffffffffff1673ffffffffffffffffffffffffffffffffffffffff16815260200190815260200160002060000180546112ab90612074565b80601f01602080910402602001604051908101604052809291908181526020018280546112d790612074565b80156113245780601f106112f957610100808354040283529160200191611324565b820191906000526020600020905b81548152906001019060200180831161130757829003601f168201915b505050505081608001819052505b600360008673ffffffffffffffffffffffffffffffffffffffff1673ffffffffffffffffffffffffffffffffffffffff16815260200190815260200160002081908060018154018082558091505060019003906000526020600020906005020160009091909190915060008201518160000190816113b09190612251565b506020820151816001015560408201518160020190816113d09190612251565b5060608201518160030160006101000a81548173ffffffffffffffffffffffffffffffffffffffff021916908373ffffffffffffffffffffffffffffffffffffffff160217905550608082015181600401908161142d9190612251565b50505061143861178a565b6040518060400160405280600181526020017f2b0000000000000000000000000000000000000000000000000000000000000081525081600001819052508381602001818152505082816040018190525085816060019073ffffffffffffffffffffffffffffffffffffffff16908173ffffffffffffffffffffffffffffffffffffffff1681525050600160008773ffffffffffffffffffffffffffffffffffffffff1673ffffffffffffffffffffffffffffffffffffffff16815260200190815260200160002060010160009054906101000a900460ff16156115ea57600160008773ffffffffffffffffffffffffffffffffffffffff1673ffffffffffffffffffffffffffffffffffffffff168152602001908152602001600020600001805461156390612074565b80601f016020809104026020016040519081016040528092919081815260200182805461158f90612074565b80156115dc5780601f106115b1576101008083540402835291602001916115dc565b820191906000526020600020905b8154815290600101906020018083116115bf57829003601f168201915b505050505081608001819052505b600360008673ffffffffffffffffffffffffffffffffffffffff1673ffffffffffffffffffffffffffffffffffffffff16815260200190815260200160002081908060018154018082558091505060019003906000526020600020906005020160009091909190915060008201518160000190816116689190612251565b506020820151816001015560408201518160020190816116889190612251565b5060608201518160030160006101000a81548173ffffffffffffffffffffffffffffffffffffffff021916908373ffffffffffffffffffffffffffffffffffffffff16021790555060808201518160040190816116e59190612251565b505050505050505050565b6040518060400160405280606081526020016000151581525090565b50805461171890612074565b6000825580601f1061172a5750611749565b601f01602090049060005260206000209081019061174891906117cf565b5b50565b6040518060800160405280600073ffffffffffffffffffffffffffffffffffffffff1681526020016000815260200160608152602001606081525090565b6040518060a00160405280606081526020016000815260200160608152602001600073ffffffffffffffffffffffffffffffffffffffff168152602001606081525090565b5b808211156117e85760008160009055506001016117d0565b5090565b6000604051905090565b600080fd5b600080fd5b600073ffffffffffffffffffffffffffffffffffffffff82169050919050565b600061182b82611800565b9050919050565b61183b81611820565b811461184657600080fd5b50565b60008135905061185881611832565b92915050565b600060208284031215611874576118736117f6565b5b600061188284828501611849565b91505092915050565b600081519050919050565b600082825260208201905092915050565b6000819050602082019050919050565b6118c081611820565b82525050565b60006118d283836118b7565b60208301905092915050565b6000602082019050919050565b60006118f68261188b565b6119008185611896565b935061190b836118a7565b8060005b8381101561193c57815161192388826118c6565b975061192e836118de565b92505060018101905061190f565b5085935050505092915050565b600081519050919050565b600082825260208201905092915050565b6000819050602082019050919050565b6000819050919050565b61198881611975565b82525050565b600061199a838361197f565b60208301905092915050565b6000602082019050919050565b60006119be82611949565b6119c88185611954565b93506119d383611965565b8060005b83811015611a045781516119eb888261198e565b97506119f6836119a6565b9250506001810190506119d7565b5085935050505092915050565b600081519050919050565b600082825260208201905092915050565b6000819050602082019050919050565b600081519050919050565b600082825260208201905092915050565b60005b83811015611a77578082015181840152602081019050611a5c565b60008484015250505050565b6000601f19601f8301169050919050565b6000611a9f82611a3d565b611aa98185611a48565b9350611ab9818560208601611a59565b611ac281611a83565b840191505092915050565b6000611ad98383611a94565b905092915050565b6000602082019050919050565b6000611af982611a11565b611b038185611a1c565b935083602082028501611b1585611a2d565b8060005b85811015611b515784840389528151611b328582611acd565b9450611b3d83611ae1565b925060208a01995050600181019050611b19565b50829750879550505050505092915050565b60006080820190508181036000830152611b7d81876118eb565b90508181036020830152611b9181866119b3565b90508181036040830152611ba58185611aee565b90508181036060830152611bb98184611aee565b905095945050505050565b600080fd5b600080fd5b7f4e487b7100000000000000000000000000000000000000000000000000000000600052604160045260246000fd5b611c0682611a83565b810181811067ffffffffffffffff82111715611c2557611c24611bce565b5b80604052505050565b6000611c386117ec565b9050611c448282611bfd565b919050565b600067ffffffffffffffff821115611c6457611c63611bce565b5b611c6d82611a83565b9050602081019050919050565b82818337600083830152505050565b6000611c9c611c9784611c49565b611c2e565b905082815260208101848484011115611cb857611cb7611bc9565b5b611cc3848285611c7a565b509392505050565b600082601f830112611ce057611cdf611bc4565b5b8135611cf0848260208601611c89565b91505092915050565b600060208284031215611d0f57611d0e6117f6565b5b600082013567ffffffffffffffff811115611d2d57611d2c6117fb565b5b611d3984828501611ccb565b91505092915050565b60008115159050919050565b611d5781611d42565b82525050565b60006040830160008301518482036000860152611d7a8282611a94565b9150506020830151611d8f6020860182611d4e565b508091505092915050565b60006020820190508181036000830152611db48184611d5d565b905092915050565b600081519050919050565b600082825260208201905092915050565b6000819050602082019050919050565b600060a0830160008301518482036000860152611e058282611a94565b9150506020830151611e1a602086018261197f565b5060408301518482036040860152611e328282611a94565b9150506060830151611e4760608601826118b7565b5060808301518482036080860152611e5f8282611a94565b9150508091505092915050565b6000611e788383611de8565b905092915050565b6000602082019050919050565b6000611e9882611dbc565b611ea28185611dc7565b935083602082028501611eb485611dd8565b8060005b85811015611ef05784840389528151611ed18582611e6c565b9450611edc83611e80565b925060208a01995050600181019050611eb8565b50829750879550505050505092915050565b60006020820190508181036000830152611f1c8184611e8d565b905092915050565b611f2d81611975565b8114611f3857600080fd5b50565b600081359050611f4a81611f24565b92915050565b600060208284031215611f6657611f656117f6565b5b6000611f7484828501611f3b565b91505092915050565b611f8681611820565b82525050565b6000602082019050611fa16000830184611f7d565b92915050565b600080600060608486031215611fc057611fbf6117f6565b5b6000611fce86828701611849565b9350506020611fdf86828701611f3b565b925050604084013567ffffffffffffffff81111561200057611fff6117fb565b5b61200c86828701611ccb565b9150509250925092565b7f4e487b7100000000000000000000000000000000000000000000000000000000600052603260045260246000fd5b7f4e487b7100000000000000000000000000000000000000000000000000000000600052602260045260246000fd5b6000600282049050600182168061208c57607f821691505b60208210810361209f5761209e612045565b5b50919050565b60008190508160005260206000209050919050565b60006020601f8301049050919050565b600082821b905092915050565b6000600883026121077fffffffffffffffffffffffffffffffffffffffffffffffffffffffffffffffff826120ca565b61211186836120ca565b95508019841693508086168417925050509392505050565b6000819050919050565b600061214e61214961214484611975565b612129565b611975565b9050919050565b6000819050919050565b61216883612133565b61217c61217482612155565b8484546120d7565b825550505050565b600090565b612191612184565b61219c81848461215f565b505050565b5b818110156121c0576121b5600082612189565b6001810190506121a2565b5050565b601f821115612205576121d6816120a5565b6121df846120ba565b810160208510156121ee578190505b6122026121fa856120ba565b8301826121a1565b50505b505050565b600082821c905092915050565b60006122286000198460080261220a565b1980831691505092915050565b60006122418383612217565b9150826002028217905092915050565b61225a82611a3d565b67ffffffffffffffff81111561227357612272611bce565b5b61227d8254612074565b6122888282856121c4565b600060209050601f8311600181146122bb57600084156122a9578287015190505b6122b38582612235565b86555061231b565b601f1984166122c9866120a5565b60005b828110156122f1578489015182556001820191506020850194506020810190506122cc565b8683101561230e578489015161230a601f891682612217565b8355505b6001600288020188555050505b505050505050565b600082825260208201905092915050565b7f4e616f206578697374652074616c207265717565737400000000000000000000600082015250565b600061236a601683612323565b915061237582612334565b602082019050919050565b600060208201905081810360008301526123998161235d565b9050919050565b7f4e487b7100000000000000000000000000000000000000000000000000000000600052601160045260246000fd5b60006123da82611975565b91506123e583611975565b92508282026123f381611975565b9150828204841483151761240a576124096123a0565b5b5092915050565b7f5061677565206f2076616c6f7220636f727265746f0000000000000000000000600082015250565b6000612447601583612323565b915061245282612411565b602082019050919050565b600060208201905081810360008301526124768161243a565b9050919050565b600061248882611975565b915061249383611975565b92508282039050818111156124ab576124aa6123a0565b5b92915050565b6000815490506124c081612074565b9050919050565b8181036124d55750506125ad565b6124de826124b1565b67ffffffffffffffff8111156124f7576124f6611bce565b5b6125018254612074565b61250c8282856121c4565b6000601f83116001811461253b5760008415612529578287015490505b6125338582612235565b8655506125a6565b601f198416612549876120a5565b9650612554866120a5565b60005b8281101561257c57848901548255600182019150600185019450602081019050612557565b868310156125995784890154612595601f891682612217565b8355505b6001600288020188555050505b5050505050505b565b7f4e487b7100000000000000000000000000000000000000000000000000000000600052603160045260246000fdfea2646970667358221220e0a43b41ad654e3db065b6de13192f3996a65082ac34db671d33067cc25ff11c64736f6c63430008180033",
  "linkReferences": {},
  "deployedLinkReferences": {}
}